{
  "contractName": "Mimemonkey",
  "abi": [
    {
      "inputs": [],
      "stateMutability": "nonpayable",
      "type": "constructor"
    },
    {
      "anonymous": false,
      "inputs": [
        {
          "indexed": true,
          "internalType": "address",
          "name": "owner",
          "type": "address"
        },
        {
          "indexed": true,
          "internalType": "address",
          "name": "approved",
          "type": "address"
        },
        {
          "indexed": true,
          "internalType": "uint256",
          "name": "tokenId",
          "type": "uint256"
        }
      ],
      "name": "Approval",
      "type": "event"
    },
    {
      "anonymous": false,
      "inputs": [
        {
          "indexed": true,
          "internalType": "address",
          "name": "owner",
          "type": "address"
        },
        {
          "indexed": true,
          "internalType": "address",
          "name": "operator",
          "type": "address"
        },
        {
          "indexed": false,
          "internalType": "bool",
          "name": "approved",
          "type": "bool"
        }
      ],
      "name": "ApprovalForAll",
      "type": "event"
    },
    {
      "anonymous": false,
      "inputs": [
        {
          "indexed": true,
          "internalType": "address",
          "name": "previousOwner",
          "type": "address"
        },
        {
          "indexed": true,
          "internalType": "address",
          "name": "newOwner",
          "type": "address"
        }
      ],
      "name": "OwnershipTransferred",
      "type": "event"
    },
    {
      "anonymous": false,
      "inputs": [
        {
          "indexed": true,
          "internalType": "address",
          "name": "from",
          "type": "address"
        },
        {
          "indexed": true,
          "internalType": "address",
          "name": "to",
          "type": "address"
        },
        {
          "indexed": true,
          "internalType": "uint256",
          "name": "tokenId",
          "type": "uint256"
        }
      ],
      "name": "Transfer",
      "type": "event"
    },
    {
      "inputs": [
        {
          "internalType": "address",
          "name": "to",
          "type": "address"
        },
        {
          "internalType": "uint256",
          "name": "tokenId",
          "type": "uint256"
        }
      ],
      "name": "approve",
      "outputs": [],
      "stateMutability": "nonpayable",
      "type": "function"
    },
    {
      "inputs": [
        {
          "internalType": "address",
          "name": "owner",
          "type": "address"
        }
      ],
      "name": "balanceOf",
      "outputs": [
        {
          "internalType": "uint256",
          "name": "",
          "type": "uint256"
        }
      ],
      "stateMutability": "view",
      "type": "function",
      "constant": true
    },
    {
      "inputs": [
        {
          "internalType": "uint256",
          "name": "tokenId",
          "type": "uint256"
        }
      ],
      "name": "getApproved",
      "outputs": [
        {
          "internalType": "address",
          "name": "",
          "type": "address"
        }
      ],
      "stateMutability": "view",
      "type": "function",
      "constant": true
    },
    {
      "inputs": [
        {
          "internalType": "address",
          "name": "owner",
          "type": "address"
        },
        {
          "internalType": "address",
          "name": "operator",
          "type": "address"
        }
      ],
      "name": "isApprovedForAll",
      "outputs": [
        {
          "internalType": "bool",
          "name": "",
          "type": "bool"
        }
      ],
      "stateMutability": "view",
      "type": "function",
      "constant": true
    },
    {
      "inputs": [],
      "name": "name",
      "outputs": [
        {
          "internalType": "string",
          "name": "",
          "type": "string"
        }
      ],
      "stateMutability": "view",
      "type": "function",
      "constant": true
    },
    {
      "inputs": [],
      "name": "owner",
      "outputs": [
        {
          "internalType": "address",
          "name": "",
          "type": "address"
        }
      ],
      "stateMutability": "view",
      "type": "function",
      "constant": true
    },
    {
      "inputs": [
        {
          "internalType": "uint256",
          "name": "tokenId",
          "type": "uint256"
        }
      ],
      "name": "ownerOf",
      "outputs": [
        {
          "internalType": "address",
          "name": "",
          "type": "address"
        }
      ],
      "stateMutability": "view",
      "type": "function",
      "constant": true
    },
    {
      "inputs": [],
      "name": "renounceOwnership",
      "outputs": [],
      "stateMutability": "nonpayable",
      "type": "function"
    },
    {
      "inputs": [
        {
          "internalType": "uint256",
          "name": "_tokenId",
          "type": "uint256"
        },
        {
          "internalType": "uint256",
          "name": "_salePrice",
          "type": "uint256"
        }
      ],
      "name": "royaltyInfo",
      "outputs": [
        {
          "internalType": "address",
          "name": "",
          "type": "address"
        },
        {
          "internalType": "uint256",
          "name": "",
          "type": "uint256"
        }
      ],
      "stateMutability": "view",
      "type": "function",
      "constant": true
    },
    {
      "inputs": [
        {
          "internalType": "address",
          "name": "from",
          "type": "address"
        },
        {
          "internalType": "address",
          "name": "to",
          "type": "address"
        },
        {
          "internalType": "uint256",
          "name": "tokenId",
          "type": "uint256"
        }
      ],
      "name": "safeTransferFrom",
      "outputs": [],
      "stateMutability": "nonpayable",
      "type": "function"
    },
    {
      "inputs": [
        {
          "internalType": "address",
          "name": "from",
          "type": "address"
        },
        {
          "internalType": "address",
          "name": "to",
          "type": "address"
        },
        {
          "internalType": "uint256",
          "name": "tokenId",
          "type": "uint256"
        },
        {
          "internalType": "bytes",
          "name": "data",
          "type": "bytes"
        }
      ],
      "name": "safeTransferFrom",
      "outputs": [],
      "stateMutability": "nonpayable",
      "type": "function"
    },
    {
      "inputs": [
        {
          "internalType": "address",
          "name": "operator",
          "type": "address"
        },
        {
          "internalType": "bool",
          "name": "approved",
          "type": "bool"
        }
      ],
      "name": "setApprovalForAll",
      "outputs": [],
      "stateMutability": "nonpayable",
      "type": "function"
    },
    {
      "inputs": [],
      "name": "symbol",
      "outputs": [
        {
          "internalType": "string",
          "name": "",
          "type": "string"
        }
      ],
      "stateMutability": "view",
      "type": "function",
      "constant": true
    },
    {
      "inputs": [
        {
          "internalType": "uint256",
          "name": "tokenId",
          "type": "uint256"
        }
      ],
      "name": "tokenURI",
      "outputs": [
        {
          "internalType": "string",
          "name": "",
          "type": "string"
        }
      ],
      "stateMutability": "view",
      "type": "function",
      "constant": true
    },
    {
      "inputs": [
        {
          "internalType": "address",
          "name": "from",
          "type": "address"
        },
        {
          "internalType": "address",
          "name": "to",
          "type": "address"
        },
        {
          "internalType": "uint256",
          "name": "tokenId",
          "type": "uint256"
        }
      ],
      "name": "transferFrom",
      "outputs": [],
      "stateMutability": "nonpayable",
      "type": "function"
    },
    {
      "inputs": [
        {
          "internalType": "address",
          "name": "newOwner",
          "type": "address"
        }
      ],
      "name": "transferOwnership",
      "outputs": [],
      "stateMutability": "nonpayable",
      "type": "function"
    },
    {
      "inputs": [
        {
          "internalType": "bytes4",
          "name": "interfaceId",
          "type": "bytes4"
        }
      ],
      "name": "supportsInterface",
      "outputs": [
        {
          "internalType": "bool",
          "name": "",
          "type": "bool"
        }
      ],
      "stateMutability": "view",
      "type": "function",
      "constant": true
    },
    {
      "inputs": [
        {
          "internalType": "uint256",
          "name": "tokenId",
          "type": "uint256"
        }
      ],
      "name": "burnNFT",
      "outputs": [],
      "stateMutability": "nonpayable",
      "type": "function"
    },
    {
      "inputs": [
        {
          "internalType": "address",
          "name": "recipient",
          "type": "address"
        },
        {
          "internalType": "string",
          "name": "tokenURI",
          "type": "string"
        }
      ],
      "name": "mintNFT",
      "outputs": [
        {
          "internalType": "uint256",
          "name": "",
          "type": "uint256"
        }
      ],
      "stateMutability": "nonpayable",
      "type": "function"
    },
    {
      "inputs": [
        {
          "internalType": "address",
          "name": "recipient",
          "type": "address"
        },
        {
          "internalType": "string",
          "name": "tokenURI",
          "type": "string"
        },
        {
          "internalType": "address",
          "name": "royaltyReceiver",
          "type": "address"
        },
        {
          "internalType": "uint96",
          "name": "feeNumerator",
          "type": "uint96"
        }
      ],
      "name": "mintNFTWithRoyalty",
      "outputs": [
        {
          "internalType": "uint256",
          "name": "",
          "type": "uint256"
        }
      ],
      "stateMutability": "nonpayable",
      "type": "function"
    }
  ],
  "bytecode": "0x60806040523480156200001157600080fd5b506040518060400160405280600a81526020017f4d696d656d6f6e6b6579000000000000000000000000000000000000000000008152506040518060400160405280600381526020017f4d4d4b000000000000000000000000000000000000000000000000000000000081525081600090816200008f9190620005d3565b508060019081620000a19190620005d3565b505050620000c4620000b8620000de60201b60201c565b620000e660201b60201c565b620000d8336103e8620001ac60201b60201c565b620007d5565b600033905090565b6000600960009054906101000a900473ffffffffffffffffffffffffffffffffffffffff16905081600960006101000a81548173ffffffffffffffffffffffffffffffffffffffff021916908373ffffffffffffffffffffffffffffffffffffffff1602179055508173ffffffffffffffffffffffffffffffffffffffff168173ffffffffffffffffffffffffffffffffffffffff167f8be0079c531659141344cd1fd0a4f28419497f9722a3daafe3b4186f6b6457e060405160405180910390a35050565b620001bc6200034f60201b60201c565b6bffffffffffffffffffffffff16816bffffffffffffffffffffffff1611156200021d576040517f08c379a0000000000000000000000000000000000000000000000000000000008152600401620002149062000741565b60405180910390fd5b600073ffffffffffffffffffffffffffffffffffffffff168273ffffffffffffffffffffffffffffffffffffffff16036200028f576040517f08c379a00000000000000000000000000000000000000000000000000000000081526004016200028690620007b3565b60405180910390fd5b60405180604001604052808373ffffffffffffffffffffffffffffffffffffffff168152602001826bffffffffffffffffffffffff16815250600760008201518160000160006101000a81548173ffffffffffffffffffffffffffffffffffffffff021916908373ffffffffffffffffffffffffffffffffffffffff16021790555060208201518160000160146101000a8154816bffffffffffffffffffffffff02191690836bffffffffffffffffffffffff1602179055509050505050565b6000612710905090565b600081519050919050565b7f4e487b7100000000000000000000000000000000000000000000000000000000600052604160045260246000fd5b7f4e487b7100000000000000000000000000000000000000000000000000000000600052602260045260246000fd5b60006002820490506001821680620003db57607f821691505b602082108103620003f157620003f062000393565b5b50919050565b60008190508160005260206000209050919050565b60006020601f8301049050919050565b600082821b905092915050565b6000600883026200045b7fffffffffffffffffffffffffffffffffffffffffffffffffffffffffffffffff826200041c565b6200046786836200041c565b95508019841693508086168417925050509392505050565b6000819050919050565b6000819050919050565b6000620004b4620004ae620004a8846200047f565b62000489565b6200047f565b9050919050565b6000819050919050565b620004d08362000493565b620004e8620004df82620004bb565b84845462000429565b825550505050565b600090565b620004ff620004f0565b6200050c818484620004c5565b505050565b5b81811015620005345762000528600082620004f5565b60018101905062000512565b5050565b601f82111562000583576200054d81620003f7565b62000558846200040c565b8101602085101562000568578190505b6200058062000577856200040c565b83018262000511565b50505b505050565b600082821c905092915050565b6000620005a86000198460080262000588565b1980831691505092915050565b6000620005c3838362000595565b9150826002028217905092915050565b620005de8262000359565b67ffffffffffffffff811115620005fa57620005f962000364565b5b620006068254620003c2565b6200061382828562000538565b600060209050601f8311600181146200064b576000841562000636578287015190505b620006428582620005b5565b865550620006b2565b601f1984166200065b86620003f7565b60005b8281101562000685578489015182556001820191506020850194506020810190506200065e565b86831015620006a55784890151620006a1601f89168262000595565b8355505b6001600288020188555050505b505050505050565b600082825260208201905092915050565b7f455243323938313a20726f79616c7479206665652077696c6c2065786365656460008201527f2073616c65507269636500000000000000000000000000000000000000000000602082015250565b600062000729602a83620006ba565b91506200073682620006cb565b604082019050919050565b600060208201905081810360008301526200075c816200071a565b9050919050565b7f455243323938313a20696e76616c696420726563656976657200000000000000600082015250565b60006200079b601983620006ba565b9150620007a88262000763565b602082019050919050565b60006020820190508181036000830152620007ce816200078c565b9050919050565b61381c80620007e56000396000f3fe608060405234801561001057600080fd5b506004361061012c5760003560e01c8063715018a6116100ad578063b88d4fde11610071578063b88d4fde14610342578063c87b56dd1461035e578063e985e9c51461038e578063eacabe14146103be578063f2fde38b146103ee5761012c565b8063715018a6146102b057806375eacc20146102ba5780638da5cb5b146102ea57806395d89b4114610308578063a22cb465146103265761012c565b80632890e0d7116100f45780632890e0d7146101e75780632a55205a1461020357806342842e0e146102345780636352211e1461025057806370a08231146102805761012c565b806301ffc9a71461013157806306fdde0314610161578063081812fc1461017f578063095ea7b3146101af57806323b872dd146101cb575b600080fd5b61014b600480360381019061014691906121ea565b61040a565b6040516101589190612232565b60405180910390f35b61016961041c565b60405161017691906122e6565b60405180910390f35b6101996004803603810190610194919061233e565b6104ae565b6040516101a691906123ac565b60405180910390f35b6101c960048036038101906101c491906123f3565b6104f4565b005b6101e560048036038101906101e09190612433565b61060b565b005b61020160048036038101906101fc919061233e565b61066b565b005b61021d60048036038101906102189190612486565b61067f565b60405161022b9291906124d5565b60405180910390f35b61024e60048036038101906102499190612433565b610869565b005b61026a6004803603810190610265919061233e565b610889565b60405161027791906123ac565b60405180910390f35b61029a600480360381019061029591906124fe565b61093a565b6040516102a7919061252b565b60405180910390f35b6102b86109f1565b005b6102d460048036038101906102cf91906126bf565b610a05565b6040516102e1919061252b565b60405180910390f35b6102f2610a34565b6040516102ff91906123ac565b60405180910390f35b610310610a5e565b60405161031d91906122e6565b60405180910390f35b610340600480360381019061033b919061276e565b610af0565b005b61035c6004803603810190610357919061284f565b610b06565b005b6103786004803603810190610373919061233e565b610b68565b60405161038591906122e6565b60405180910390f35b6103a860048036038101906103a391906128d2565b610c7a565b6040516103b59190612232565b60405180910390f35b6103d860048036038101906103d39190612912565b610d0e565b6040516103e5919061252b565b60405180910390f35b610408600480360381019061040391906124fe565b610d4e565b005b600061041582610dd1565b9050919050565b60606000805461042b9061299d565b80601f01602080910402602001604051908101604052809291908181526020018280546104579061299d565b80156104a45780601f10610479576101008083540402835291602001916104a4565b820191906000526020600020905b81548152906001019060200180831161048757829003601f168201915b5050505050905090565b60006104b982610e4b565b6004600083815260200190815260200160002060009054906101000a900473ffffffffffffffffffffffffffffffffffffffff169050919050565b60006104ff82610889565b90508073ffffffffffffffffffffffffffffffffffffffff168373ffffffffffffffffffffffffffffffffffffffff160361056f576040517f08c379a000000000000000000000000000000000000000000000000000000000815260040161056690612a40565b60405180910390fd5b8073ffffffffffffffffffffffffffffffffffffffff1661058e610e96565b73ffffffffffffffffffffffffffffffffffffffff1614806105bd57506105bc816105b7610e96565b610c7a565b5b6105fc576040517f08c379a00000000000000000000000000000000000000000000000000000000081526004016105f390612ad2565b60405180910390fd5b6106068383610e9e565b505050565b61061c610616610e96565b82610f57565b61065b576040517f08c379a000000000000000000000000000000000000000000000000000000000815260040161065290612b64565b60405180910390fd5b610666838383610fec565b505050565b610673611252565b61067c816112d0565b50565b6000806000600860008681526020019081526020016000206040518060400160405290816000820160009054906101000a900473ffffffffffffffffffffffffffffffffffffffff1673ffffffffffffffffffffffffffffffffffffffff1673ffffffffffffffffffffffffffffffffffffffff1681526020016000820160149054906101000a90046bffffffffffffffffffffffff166bffffffffffffffffffffffff166bffffffffffffffffffffffff16815250509050600073ffffffffffffffffffffffffffffffffffffffff16816000015173ffffffffffffffffffffffffffffffffffffffff16036108145760076040518060400160405290816000820160009054906101000a900473ffffffffffffffffffffffffffffffffffffffff1673ffffffffffffffffffffffffffffffffffffffff1673ffffffffffffffffffffffffffffffffffffffff1681526020016000820160149054906101000a90046bffffffffffffffffffffffff166bffffffffffffffffffffffff166bffffffffffffffffffffffff168152505090505b600061081e6112e5565b6bffffffffffffffffffffffff1682602001516bffffffffffffffffffffffff168661084a9190612bb3565b6108549190612c3c565b90508160000151819350935050509250929050565b61088483838360405180602001604052806000815250610b06565b505050565b6000806002600084815260200190815260200160002060009054906101000a900473ffffffffffffffffffffffffffffffffffffffff169050600073ffffffffffffffffffffffffffffffffffffffff168173ffffffffffffffffffffffffffffffffffffffff1603610931576040517f08c379a000000000000000000000000000000000000000000000000000000000815260040161092890612cb9565b60405180910390fd5b80915050919050565b60008073ffffffffffffffffffffffffffffffffffffffff168273ffffffffffffffffffffffffffffffffffffffff16036109aa576040517f08c379a00000000000000000000000000000000000000000000000000000000081526004016109a190612d4b565b60405180910390fd5b600360008373ffffffffffffffffffffffffffffffffffffffff1673ffffffffffffffffffffffffffffffffffffffff168152602001908152602001600020549050919050565b6109f9611252565b610a0360006112ef565b565b6000610a0f611252565b6000610a1b8686610d0e565b9050610a288185856113b5565b80915050949350505050565b6000600960009054906101000a900473ffffffffffffffffffffffffffffffffffffffff16905090565b606060018054610a6d9061299d565b80601f0160208091040260200160405190810160405280929190818152602001828054610a999061299d565b8015610ae65780601f10610abb57610100808354040283529160200191610ae6565b820191906000526020600020905b815481529060010190602001808311610ac957829003601f168201915b5050505050905090565b610b02610afb610e96565b838361155c565b5050565b610b17610b11610e96565b83610f57565b610b56576040517f08c379a0000000000000000000000000000000000000000000000000000000008152600401610b4d90612b64565b60405180910390fd5b610b62848484846116c8565b50505050565b6060610b7382610e4b565b6000600660008481526020019081526020016000208054610b939061299d565b80601f0160208091040260200160405190810160405280929190818152602001828054610bbf9061299d565b8015610c0c5780601f10610be157610100808354040283529160200191610c0c565b820191906000526020600020905b815481529060010190602001808311610bef57829003601f168201915b505050505090506000610c1d611724565b90506000815103610c32578192505050610c75565b600082511115610c67578082604051602001610c4f929190612da7565b60405160208183030381529060405292505050610c75565b610c708461173b565b925050505b919050565b6000600560008473ffffffffffffffffffffffffffffffffffffffff1673ffffffffffffffffffffffffffffffffffffffff16815260200190815260200160002060008373ffffffffffffffffffffffffffffffffffffffff1673ffffffffffffffffffffffffffffffffffffffff16815260200190815260200160002060009054906101000a900460ff16905092915050565b6000610d18611252565b610d22600a6117a3565b6000610d2e600a6117b9565b9050610d3a84826117c7565b610d4481846117e5565b8091505092915050565b610d56611252565b600073ffffffffffffffffffffffffffffffffffffffff168173ffffffffffffffffffffffffffffffffffffffff1603610dc5576040517f08c379a0000000000000000000000000000000000000000000000000000000008152600401610dbc90612e3d565b60405180910390fd5b610dce816112ef565b50565b60007f2a55205a000000000000000000000000000000000000000000000000000000007bffffffffffffffffffffffffffffffffffffffffffffffffffffffff1916827bffffffffffffffffffffffffffffffffffffffffffffffffffffffff19161480610e445750610e4382611852565b5b9050919050565b610e5481611934565b610e93576040517f08c379a0000000000000000000000000000000000000000000000000000000008152600401610e8a90612cb9565b60405180910390fd5b50565b600033905090565b816004600083815260200190815260200160002060006101000a81548173ffffffffffffffffffffffffffffffffffffffff021916908373ffffffffffffffffffffffffffffffffffffffff160217905550808273ffffffffffffffffffffffffffffffffffffffff16610f1183610889565b73ffffffffffffffffffffffffffffffffffffffff167f8c5be1e5ebec7d5bd14f71427d1e84f3dd0314c0f7b2291e5b200ac8c7c3b92560405160405180910390a45050565b600080610f6383610889565b90508073ffffffffffffffffffffffffffffffffffffffff168473ffffffffffffffffffffffffffffffffffffffff161480610fa55750610fa48185610c7a565b5b80610fe357508373ffffffffffffffffffffffffffffffffffffffff16610fcb846104ae565b73ffffffffffffffffffffffffffffffffffffffff16145b91505092915050565b8273ffffffffffffffffffffffffffffffffffffffff1661100c82610889565b73ffffffffffffffffffffffffffffffffffffffff1614611062576040517f08c379a000000000000000000000000000000000000000000000000000000000815260040161105990612ecf565b60405180910390fd5b600073ffffffffffffffffffffffffffffffffffffffff168273ffffffffffffffffffffffffffffffffffffffff16036110d1576040517f08c379a00000000000000000000000000000000000000000000000000000000081526004016110c890612f61565b60405180910390fd5b6110dc8383836119a0565b6110e7600082610e9e565b6001600360008573ffffffffffffffffffffffffffffffffffffffff1673ffffffffffffffffffffffffffffffffffffffff16815260200190815260200160002060008282546111379190612f81565b925050819055506001600360008473ffffffffffffffffffffffffffffffffffffffff1673ffffffffffffffffffffffffffffffffffffffff168152602001908152602001600020600082825461118e9190612fb5565b92505081905550816002600083815260200190815260200160002060006101000a81548173ffffffffffffffffffffffffffffffffffffffff021916908373ffffffffffffffffffffffffffffffffffffffff160217905550808273ffffffffffffffffffffffffffffffffffffffff168473ffffffffffffffffffffffffffffffffffffffff167fddf252ad1be2c89b69c2b068fc378daa952ba7f163c4a11628f55a4df523b3ef60405160405180910390a461124d8383836119a5565b505050565b61125a610e96565b73ffffffffffffffffffffffffffffffffffffffff16611278610a34565b73ffffffffffffffffffffffffffffffffffffffff16146112ce576040517f08c379a00000000000000000000000000000000000000000000000000000000081526004016112c590613057565b60405180910390fd5b565b6112d9816119aa565b6112e2816119fd565b50565b6000612710905090565b6000600960009054906101000a900473ffffffffffffffffffffffffffffffffffffffff16905081600960006101000a81548173ffffffffffffffffffffffffffffffffffffffff021916908373ffffffffffffffffffffffffffffffffffffffff1602179055508173ffffffffffffffffffffffffffffffffffffffff168173ffffffffffffffffffffffffffffffffffffffff167f8be0079c531659141344cd1fd0a4f28419497f9722a3daafe3b4186f6b6457e060405160405180910390a35050565b6113bd6112e5565b6bffffffffffffffffffffffff16816bffffffffffffffffffffffff16111561141b576040517f08c379a0000000000000000000000000000000000000000000000000000000008152600401611412906130e9565b60405180910390fd5b600073ffffffffffffffffffffffffffffffffffffffff168273ffffffffffffffffffffffffffffffffffffffff160361148a576040517f08c379a000000000000000000000000000000000000000000000000000000000815260040161148190613155565b60405180910390fd5b60405180604001604052808373ffffffffffffffffffffffffffffffffffffffff168152602001826bffffffffffffffffffffffff168152506008600085815260200190815260200160002060008201518160000160006101000a81548173ffffffffffffffffffffffffffffffffffffffff021916908373ffffffffffffffffffffffffffffffffffffffff16021790555060208201518160000160146101000a8154816bffffffffffffffffffffffff02191690836bffffffffffffffffffffffff160217905550905050505050565b8173ffffffffffffffffffffffffffffffffffffffff168373ffffffffffffffffffffffffffffffffffffffff16036115ca576040517f08c379a00000000000000000000000000000000000000000000000000000000081526004016115c1906131c1565b60405180910390fd5b80600560008573ffffffffffffffffffffffffffffffffffffffff1673ffffffffffffffffffffffffffffffffffffffff16815260200190815260200160002060008473ffffffffffffffffffffffffffffffffffffffff1673ffffffffffffffffffffffffffffffffffffffff16815260200190815260200160002060006101000a81548160ff0219169083151502179055508173ffffffffffffffffffffffffffffffffffffffff168373ffffffffffffffffffffffffffffffffffffffff167f17307eab39ab6107e8899845ad3d59bd9653f200f220920489ca2b5937696c31836040516116bb9190612232565b60405180910390a3505050565b6116d3848484610fec565b6116df84848484611a5c565b61171e576040517f08c379a000000000000000000000000000000000000000000000000000000000815260040161171590613253565b60405180910390fd5b50505050565b606060405180602001604052806000815250905090565b606061174682610e4b565b6000611750611724565b90506000815111611770576040518060200160405280600081525061179b565b8061177a84611be3565b60405160200161178b929190612da7565b6040516020818303038152906040525b915050919050565b6001816000016000828254019250508190555050565b600081600001549050919050565b6117e1828260405180602001604052806000815250611d43565b5050565b6117ee82611934565b61182d576040517f08c379a0000000000000000000000000000000000000000000000000000000008152600401611824906132e5565b60405180910390fd5b8060066000848152602001908152602001600020908161184d91906134b1565b505050565b60007f80ac58cd000000000000000000000000000000000000000000000000000000007bffffffffffffffffffffffffffffffffffffffffffffffffffffffff1916827bffffffffffffffffffffffffffffffffffffffffffffffffffffffff1916148061191d57507f5b5e139f000000000000000000000000000000000000000000000000000000007bffffffffffffffffffffffffffffffffffffffffffffffffffffffff1916827bffffffffffffffffffffffffffffffffffffffffffffffffffffffff1916145b8061192d575061192c82611d9e565b5b9050919050565b60008073ffffffffffffffffffffffffffffffffffffffff166002600084815260200190815260200160002060009054906101000a900473ffffffffffffffffffffffffffffffffffffffff1673ffffffffffffffffffffffffffffffffffffffff1614159050919050565b505050565b505050565b6119b381611e08565b60006006600083815260200190815260200160002080546119d39061299d565b9050146119fa576006600082815260200190815260200160002060006119f99190612121565b5b50565b60086000828152602001908152602001600020600080820160006101000a81549073ffffffffffffffffffffffffffffffffffffffff02191690556000820160146101000a8154906bffffffffffffffffffffffff0219169055505050565b6000611a7d8473ffffffffffffffffffffffffffffffffffffffff16611f25565b15611bd6578373ffffffffffffffffffffffffffffffffffffffff1663150b7a02611aa6610e96565b8786866040518563ffffffff1660e01b8152600401611ac894939291906135d8565b6020604051808303816000875af1925050508015611b0457506040513d601f19601f82011682018060405250810190611b019190613639565b60015b611b86573d8060008114611b34576040519150601f19603f3d011682016040523d82523d6000602084013e611b39565b606091505b506000815103611b7e576040517f08c379a0000000000000000000000000000000000000000000000000000000008152600401611b7590613253565b60405180910390fd5b805181602001fd5b63150b7a0260e01b7bffffffffffffffffffffffffffffffffffffffffffffffffffffffff1916817bffffffffffffffffffffffffffffffffffffffffffffffffffffffff191614915050611bdb565b600190505b949350505050565b606060008203611c2a576040518060400160405280600181526020017f30000000000000000000000000000000000000000000000000000000000000008152509050611d3e565b600082905060005b60008214611c5c578080611c4590613666565b915050600a82611c559190612c3c565b9150611c32565b60008167ffffffffffffffff811115611c7857611c77612550565b5b6040519080825280601f01601f191660200182016040528015611caa5781602001600182028036833780820191505090505b5090505b60008514611d3757600182611cc39190612f81565b9150600a85611cd291906136ae565b6030611cde9190612fb5565b60f81b818381518110611cf457611cf36136df565b5b60200101907effffffffffffffffffffffffffffffffffffffffffffffffffffffffffffff1916908160001a905350600a85611d309190612c3c565b9450611cae565b8093505050505b919050565b611d4d8383611f48565b611d5a6000848484611a5c565b611d99576040517f08c379a0000000000000000000000000000000000000000000000000000000008152600401611d9090613253565b60405180910390fd5b505050565b60007f01ffc9a7000000000000000000000000000000000000000000000000000000007bffffffffffffffffffffffffffffffffffffffffffffffffffffffff1916827bffffffffffffffffffffffffffffffffffffffffffffffffffffffff1916149050919050565b6000611e1382610889565b9050611e21816000846119a0565b611e2c600083610e9e565b6001600360008373ffffffffffffffffffffffffffffffffffffffff1673ffffffffffffffffffffffffffffffffffffffff1681526020019081526020016000206000828254611e7c9190612f81565b925050819055506002600083815260200190815260200160002060006101000a81549073ffffffffffffffffffffffffffffffffffffffff021916905581600073ffffffffffffffffffffffffffffffffffffffff168273ffffffffffffffffffffffffffffffffffffffff167fddf252ad1be2c89b69c2b068fc378daa952ba7f163c4a11628f55a4df523b3ef60405160405180910390a4611f21816000846119a5565b5050565b6000808273ffffffffffffffffffffffffffffffffffffffff163b119050919050565b600073ffffffffffffffffffffffffffffffffffffffff168273ffffffffffffffffffffffffffffffffffffffff1603611fb7576040517f08c379a0000000000000000000000000000000000000000000000000000000008152600401611fae9061375a565b60405180910390fd5b611fc081611934565b15612000576040517f08c379a0000000000000000000000000000000000000000000000000000000008152600401611ff7906137c6565b60405180910390fd5b61200c600083836119a0565b6001600360008473ffffffffffffffffffffffffffffffffffffffff1673ffffffffffffffffffffffffffffffffffffffff168152602001908152602001600020600082825461205c9190612fb5565b92505081905550816002600083815260200190815260200160002060006101000a81548173ffffffffffffffffffffffffffffffffffffffff021916908373ffffffffffffffffffffffffffffffffffffffff160217905550808273ffffffffffffffffffffffffffffffffffffffff16600073ffffffffffffffffffffffffffffffffffffffff167fddf252ad1be2c89b69c2b068fc378daa952ba7f163c4a11628f55a4df523b3ef60405160405180910390a461211d600083836119a5565b5050565b50805461212d9061299d565b6000825580601f1061213f575061215e565b601f01602090049060005260206000209081019061215d9190612161565b5b50565b5b8082111561217a576000816000905550600101612162565b5090565b6000604051905090565b600080fd5b600080fd5b60007fffffffff0000000000000000000000000000000000000000000000000000000082169050919050565b6121c781612192565b81146121d257600080fd5b50565b6000813590506121e4816121be565b92915050565b600060208284031215612200576121ff612188565b5b600061220e848285016121d5565b91505092915050565b60008115159050919050565b61222c81612217565b82525050565b60006020820190506122476000830184612223565b92915050565b600081519050919050565b600082825260208201905092915050565b60005b8381101561228757808201518184015260208101905061226c565b83811115612296576000848401525b50505050565b6000601f19601f8301169050919050565b60006122b88261224d565b6122c28185612258565b93506122d2818560208601612269565b6122db8161229c565b840191505092915050565b6000602082019050818103600083015261230081846122ad565b905092915050565b6000819050919050565b61231b81612308565b811461232657600080fd5b50565b60008135905061233881612312565b92915050565b60006020828403121561235457612353612188565b5b600061236284828501612329565b91505092915050565b600073ffffffffffffffffffffffffffffffffffffffff82169050919050565b60006123968261236b565b9050919050565b6123a68161238b565b82525050565b60006020820190506123c1600083018461239d565b92915050565b6123d08161238b565b81146123db57600080fd5b50565b6000813590506123ed816123c7565b92915050565b6000806040838503121561240a57612409612188565b5b6000612418858286016123de565b925050602061242985828601612329565b9150509250929050565b60008060006060848603121561244c5761244b612188565b5b600061245a868287016123de565b935050602061246b868287016123de565b925050604061247c86828701612329565b9150509250925092565b6000806040838503121561249d5761249c612188565b5b60006124ab85828601612329565b92505060206124bc85828601612329565b9150509250929050565b6124cf81612308565b82525050565b60006040820190506124ea600083018561239d565b6124f760208301846124c6565b9392505050565b60006020828403121561251457612513612188565b5b6000612522848285016123de565b91505092915050565b600060208201905061254060008301846124c6565b92915050565b600080fd5b600080fd5b7f4e487b7100000000000000000000000000000000000000000000000000000000600052604160045260246000fd5b6125888261229c565b810181811067ffffffffffffffff821117156125a7576125a6612550565b5b80604052505050565b60006125ba61217e565b90506125c6828261257f565b919050565b600067ffffffffffffffff8211156125e6576125e5612550565b5b6125ef8261229c565b9050602081019050919050565b82818337600083830152505050565b600061261e612619846125cb565b6125b0565b90508281526020810184848401111561263a5761263961254b565b5b6126458482856125fc565b509392505050565b600082601f83011261266257612661612546565b5b813561267284826020860161260b565b91505092915050565b60006bffffffffffffffffffffffff82169050919050565b61269c8161267b565b81146126a757600080fd5b50565b6000813590506126b981612693565b92915050565b600080600080608085870312156126d9576126d8612188565b5b60006126e7878288016123de565b945050602085013567ffffffffffffffff8111156127085761270761218d565b5b6127148782880161264d565b9350506040612725878288016123de565b9250506060612736878288016126aa565b91505092959194509250565b61274b81612217565b811461275657600080fd5b50565b60008135905061276881612742565b92915050565b6000806040838503121561278557612784612188565b5b6000612793858286016123de565b92505060206127a485828601612759565b9150509250929050565b600067ffffffffffffffff8211156127c9576127c8612550565b5b6127d28261229c565b9050602081019050919050565b60006127f26127ed846127ae565b6125b0565b90508281526020810184848401111561280e5761280d61254b565b5b6128198482856125fc565b509392505050565b600082601f83011261283657612835612546565b5b81356128468482602086016127df565b91505092915050565b6000806000806080858703121561286957612868612188565b5b6000612877878288016123de565b9450506020612888878288016123de565b935050604061289987828801612329565b925050606085013567ffffffffffffffff8111156128ba576128b961218d565b5b6128c687828801612821565b91505092959194509250565b600080604083850312156128e9576128e8612188565b5b60006128f7858286016123de565b9250506020612908858286016123de565b9150509250929050565b6000806040838503121561292957612928612188565b5b6000612937858286016123de565b925050602083013567ffffffffffffffff8111156129585761295761218d565b5b6129648582860161264d565b9150509250929050565b7f4e487b7100000000000000000000000000000000000000000000000000000000600052602260045260246000fd5b600060028204905060018216806129b557607f821691505b6020821081036129c8576129c761296e565b5b50919050565b7f4552433732313a20617070726f76616c20746f2063757272656e74206f776e6560008201527f7200000000000000000000000000000000000000000000000000000000000000602082015250565b6000612a2a602183612258565b9150612a35826129ce565b604082019050919050565b60006020820190508181036000830152612a5981612a1d565b9050919050565b7f4552433732313a20617070726f76652063616c6c6572206973206e6f7420746f60008201527f6b656e206f776e6572206e6f7220617070726f76656420666f7220616c6c0000602082015250565b6000612abc603e83612258565b9150612ac782612a60565b604082019050919050565b60006020820190508181036000830152612aeb81612aaf565b9050919050565b7f4552433732313a2063616c6c6572206973206e6f7420746f6b656e206f776e6560008201527f72206e6f7220617070726f766564000000000000000000000000000000000000602082015250565b6000612b4e602e83612258565b9150612b5982612af2565b604082019050919050565b60006020820190508181036000830152612b7d81612b41565b9050919050565b7f4e487b7100000000000000000000000000000000000000000000000000000000600052601160045260246000fd5b6000612bbe82612308565b9150612bc983612308565b9250817fffffffffffffffffffffffffffffffffffffffffffffffffffffffffffffffff0483118215151615612c0257612c01612b84565b5b828202905092915050565b7f4e487b7100000000000000000000000000000000000000000000000000000000600052601260045260246000fd5b6000612c4782612308565b9150612c5283612308565b925082612c6257612c61612c0d565b5b828204905092915050565b7f4552433732313a20696e76616c696420746f6b656e2049440000000000000000600082015250565b6000612ca3601883612258565b9150612cae82612c6d565b602082019050919050565b60006020820190508181036000830152612cd281612c96565b9050919050565b7f4552433732313a2061646472657373207a65726f206973206e6f74206120766160008201527f6c6964206f776e65720000000000000000000000000000000000000000000000602082015250565b6000612d35602983612258565b9150612d4082612cd9565b604082019050919050565b60006020820190508181036000830152612d6481612d28565b9050919050565b600081905092915050565b6000612d818261224d565b612d8b8185612d6b565b9350612d9b818560208601612269565b80840191505092915050565b6000612db38285612d76565b9150612dbf8284612d76565b91508190509392505050565b7f4f776e61626c653a206e6577206f776e657220697320746865207a65726f206160008201527f6464726573730000000000000000000000000000000000000000000000000000602082015250565b6000612e27602683612258565b9150612e3282612dcb565b604082019050919050565b60006020820190508181036000830152612e5681612e1a565b9050919050565b7f4552433732313a207472616e736665722066726f6d20696e636f72726563742060008201527f6f776e6572000000000000000000000000000000000000000000000000000000602082015250565b6000612eb9602583612258565b9150612ec482612e5d565b604082019050919050565b60006020820190508181036000830152612ee881612eac565b9050919050565b7f4552433732313a207472616e7366657220746f20746865207a65726f2061646460008201527f7265737300000000000000000000000000000000000000000000000000000000602082015250565b6000612f4b602483612258565b9150612f5682612eef565b604082019050919050565b60006020820190508181036000830152612f7a81612f3e565b9050919050565b6000612f8c82612308565b9150612f9783612308565b925082821015612faa57612fa9612b84565b5b828203905092915050565b6000612fc082612308565b9150612fcb83612308565b9250827fffffffffffffffffffffffffffffffffffffffffffffffffffffffffffffffff0382111561300057612fff612b84565b5b828201905092915050565b7f4f776e61626c653a2063616c6c6572206973206e6f7420746865206f776e6572600082015250565b6000613041602083612258565b915061304c8261300b565b602082019050919050565b6000602082019050818103600083015261307081613034565b9050919050565b7f455243323938313a20726f79616c7479206665652077696c6c2065786365656460008201527f2073616c65507269636500000000000000000000000000000000000000000000602082015250565b60006130d3602a83612258565b91506130de82613077565b604082019050919050565b60006020820190508181036000830152613102816130c6565b9050919050565b7f455243323938313a20496e76616c696420706172616d65746572730000000000600082015250565b600061313f601b83612258565b915061314a82613109565b602082019050919050565b6000602082019050818103600083015261316e81613132565b9050919050565b7f4552433732313a20617070726f766520746f2063616c6c657200000000000000600082015250565b60006131ab601983612258565b91506131b682613175565b602082019050919050565b600060208201905081810360008301526131da8161319e565b9050919050565b7f4552433732313a207472616e7366657220746f206e6f6e20455243373231526560008201527f63656976657220696d706c656d656e7465720000000000000000000000000000602082015250565b600061323d603283612258565b9150613248826131e1565b604082019050919050565b6000602082019050818103600083015261326c81613230565b9050919050565b7f45524337323155524953746f726167653a2055524920736574206f66206e6f6e60008201527f6578697374656e7420746f6b656e000000000000000000000000000000000000602082015250565b60006132cf602e83612258565b91506132da82613273565b604082019050919050565b600060208201905081810360008301526132fe816132c2565b9050919050565b60008190508160005260206000209050919050565b60006020601f8301049050919050565b600082821b905092915050565b6000600883026133677fffffffffffffffffffffffffffffffffffffffffffffffffffffffffffffffff8261332a565b613371868361332a565b95508019841693508086168417925050509392505050565b6000819050919050565b60006133ae6133a96133a484612308565b613389565b612308565b9050919050565b6000819050919050565b6133c883613393565b6133dc6133d4826133b5565b848454613337565b825550505050565b600090565b6133f16133e4565b6133fc8184846133bf565b505050565b5b81811015613420576134156000826133e9565b600181019050613402565b5050565b601f8211156134655761343681613305565b61343f8461331a565b8101602085101561344e578190505b61346261345a8561331a565b830182613401565b50505b505050565b600082821c905092915050565b60006134886000198460080261346a565b1980831691505092915050565b60006134a18383613477565b9150826002028217905092915050565b6134ba8261224d565b67ffffffffffffffff8111156134d3576134d2612550565b5b6134dd825461299d565b6134e8828285613424565b600060209050601f83116001811461351b5760008415613509578287015190505b6135138582613495565b86555061357b565b601f19841661352986613305565b60005b828110156135515784890151825560018201915060208501945060208101905061352c565b8683101561356e578489015161356a601f891682613477565b8355505b6001600288020188555050505b505050505050565b600081519050919050565b600082825260208201905092915050565b60006135aa82613583565b6135b4818561358e565b93506135c4818560208601612269565b6135cd8161229c565b840191505092915050565b60006080820190506135ed600083018761239d565b6135fa602083018661239d565b61360760408301856124c6565b8181036060830152613619818461359f565b905095945050505050565b600081519050613633816121be565b92915050565b60006020828403121561364f5761364e612188565b5b600061365d84828501613624565b91505092915050565b600061367182612308565b91507fffffffffffffffffffffffffffffffffffffffffffffffffffffffffffffffff82036136a3576136a2612b84565b5b600182019050919050565b60006136b982612308565b91506136c483612308565b9250826136d4576136d3612c0d565b5b828206905092915050565b7f4e487b7100000000000000000000000000000000000000000000000000000000600052603260045260246000fd5b7f4552433732313a206d696e7420746f20746865207a65726f2061646472657373600082015250565b6000613744602083612258565b915061374f8261370e565b602082019050919050565b6000602082019050818103600083015261377381613737565b9050919050565b7f4552433732313a20746f6b656e20616c7265616479206d696e74656400000000600082015250565b60006137b0601c83612258565b91506137bb8261377a565b602082019050919050565b600060208201905081810360008301526137df816137a3565b905091905056fea26469706673582212201f48e85b71968548a123a70918ec16f9946469ed699581feda7bdf906918d65964736f6c634300080f0033",
  "immutableReferences": {},
  "source": "// SPDX-License-Identifier: MIT\npragma solidity >=0.4.22 <0.9.0;\n\nimport \"@openzeppelin/contracts/token/ERC721/extensions/ERC721URIStorage.sol\";\nimport \"@openzeppelin/contracts/token/common/ERC2981.sol\";\nimport \"@openzeppelin/contracts/access/Ownable.sol\";\nimport \"@openzeppelin/contracts/utils/Counters.sol\";\n\ncontract Mimemonkey is ERC721URIStorage, ERC2981, Ownable {\n    using Counters for Counters.Counter;\n    Counters.Counter private _tokenIds;\n\n    constructor() ERC721(\"Mimemonkey\", \"MMK\") {\n        _setDefaultRoyalty(msg.sender, 1000);\n    }\n\n    function supportsInterface(\n        bytes4 interfaceId\n    ) public view virtual override(ERC721, ERC2981) returns (bool) {\n        return super.supportsInterface(interfaceId);\n    }\n\n    function _burn(uint256 tokenId) internal virtual override {\n        super._burn(tokenId);\n        _resetTokenRoyalty(tokenId);\n    }\n\n    function burnNFT(uint256 tokenId) public onlyOwner {\n        _burn(tokenId);\n    }\n\n    function mintNFT(\n        address recipient,\n        string memory tokenURI\n    ) public onlyOwner returns (uint256) {\n        _tokenIds.increment();\n\n        uint256 newItemId = _tokenIds.current();\n        _safeMint(recipient, newItemId);\n        _setTokenURI(newItemId, tokenURI);\n\n        return newItemId;\n    }\n\n    function mintNFTWithRoyalty(\n        address recipient,\n        string memory tokenURI,\n        address royaltyReceiver,\n        uint96 feeNumerator\n    ) public onlyOwner returns (uint256) {\n        uint256 tokenId = mintNFT(recipient, tokenURI);\n        _setTokenRoyalty(tokenId, royaltyReceiver, feeNumerator);\n\n        return tokenId;\n    }\n}\n",
  "sourcePath": "/Users/abhinavraj/Documents/code/Learning/truffle/NFT royalities/contracts/Mimemonkey.sol",
  "compiler": {
    "name": "solc",
    "version": "0.8.15+commit.e14f2714.Emscripten.clang"
  },
  "schemaVersion": "3.4.16",
  "updatedAt": "2024-06-06T08:58:27.649Z",
  "networkType": "ethereum",
  "devdoc": {
    "kind": "dev",
    "methods": {
      "approve(address,uint256)": {
        "details": "See {IERC721-approve}."
      },
      "balanceOf(address)": {
        "details": "See {IERC721-balanceOf}."
      },
      "getApproved(uint256)": {
        "details": "See {IERC721-getApproved}."
      },
      "isApprovedForAll(address,address)": {
        "details": "See {IERC721-isApprovedForAll}."
      },
      "name()": {
        "details": "See {IERC721Metadata-name}."
      },
      "owner()": {
        "details": "Returns the address of the current owner."
      },
      "ownerOf(uint256)": {
        "details": "See {IERC721-ownerOf}."
      },
      "renounceOwnership()": {
        "details": "Leaves the contract without owner. It will not be possible to call `onlyOwner` functions anymore. Can only be called by the current owner. NOTE: Renouncing ownership will leave the contract without an owner, thereby removing any functionality that is only available to the owner."
      },
      "royaltyInfo(uint256,uint256)": {
        "details": "Returns how much royalty is owed and to whom, based on a sale price that may be denominated in any unit of exchange. The royalty amount is denominated and should be paid in that same unit of exchange."
      },
      "safeTransferFrom(address,address,uint256)": {
        "details": "See {IERC721-safeTransferFrom}."
      },
      "safeTransferFrom(address,address,uint256,bytes)": {
        "details": "See {IERC721-safeTransferFrom}."
      },
      "setApprovalForAll(address,bool)": {
        "details": "See {IERC721-setApprovalForAll}."
      },
      "symbol()": {
        "details": "See {IERC721Metadata-symbol}."
      },
      "tokenURI(uint256)": {
        "details": "See {IERC721Metadata-tokenURI}."
      },
      "transferFrom(address,address,uint256)": {
        "details": "See {IERC721-transferFrom}."
      },
      "transferOwnership(address)": {
        "details": "Transfers ownership of the contract to a new account (`newOwner`). Can only be called by the current owner."
      }
    },
    "version": 1
  },
  "userdoc": {
    "kind": "user",
    "methods": {},
    "version": 1
  }
}